{
  "_format": "hh-sol-artifact-1",
  "contractName": "Punk",
  "sourceName": "contracts/Punk.sol",
  "abi": [
    {
      "inputs": [
        {
          "internalType": "string",
          "name": "_tokenName",
          "type": "string"
        },
        {
          "internalType": "string",
          "name": "_tokenSymbol",
          "type": "string"
        },
        {
          "internalType": "uint256",
          "name": "_cost",
          "type": "uint256"
        },
        {
          "internalType": "uint256",
          "name": "_maxSupply",
          "type": "uint256"
        },
        {
          "internalType": "uint256",
          "name": "_maxMintAmountPerTx",
          "type": "uint256"
        },
        {
          "internalType": "uint256",
          "name": "_maxMintAmountPerW",
          "type": "uint256"
        },
        {
          "internalType": "string",
          "name": "_hiddenMetadataUri",
          "type": "string"
        }
      ],
      "stateMutability": "nonpayable",
      "type": "constructor"
    },
    {
      "inputs": [],
      "name": "ApprovalCallerNotOwnerNorApproved",
      "type": "error"
    },
    {
      "inputs": [],
      "name": "ApprovalQueryForNonexistentToken",
      "type": "error"
    },
    {
      "inputs": [],
      "name": "ApproveToCaller",
      "type": "error"
    },
    {
      "inputs": [],
      "name": "BalanceQueryForZeroAddress",
      "type": "error"
    },
    {
      "inputs": [],
      "name": "MintERC2309QuantityExceedsLimit",
      "type": "error"
    },
    {
      "inputs": [],
      "name": "MintToZeroAddress",
      "type": "error"
    },
    {
      "inputs": [],
      "name": "MintZeroQuantity",
      "type": "error"
    },
    {
      "inputs": [],
      "name": "OwnerQueryForNonexistentToken",
      "type": "error"
    },
    {
      "inputs": [],
      "name": "OwnershipNotInitializedForExtraData",
      "type": "error"
    },
    {
      "inputs": [],
      "name": "TransferCallerNotOwnerNorApproved",
      "type": "error"
    },
    {
      "inputs": [],
      "name": "TransferFromIncorrectOwner",
      "type": "error"
    },
    {
      "inputs": [],
      "name": "TransferToNonERC721ReceiverImplementer",
      "type": "error"
    },
    {
      "inputs": [],
      "name": "TransferToZeroAddress",
      "type": "error"
    },
    {
      "inputs": [],
      "name": "URIQueryForNonexistentToken",
      "type": "error"
    },
    {
      "anonymous": false,
      "inputs": [
        {
          "indexed": true,
          "internalType": "address",
          "name": "owner",
          "type": "address"
        },
        {
          "indexed": true,
          "internalType": "address",
          "name": "approved",
          "type": "address"
        },
        {
          "indexed": true,
          "internalType": "uint256",
          "name": "tokenId",
          "type": "uint256"
        }
      ],
      "name": "Approval",
      "type": "event"
    },
    {
      "anonymous": false,
      "inputs": [
        {
          "indexed": true,
          "internalType": "address",
          "name": "owner",
          "type": "address"
        },
        {
          "indexed": true,
          "internalType": "address",
          "name": "operator",
          "type": "address"
        },
        {
          "indexed": false,
          "internalType": "bool",
          "name": "approved",
          "type": "bool"
        }
      ],
      "name": "ApprovalForAll",
      "type": "event"
    },
    {
      "anonymous": false,
      "inputs": [
        {
          "indexed": true,
          "internalType": "uint256",
          "name": "fromTokenId",
          "type": "uint256"
        },
        {
          "indexed": false,
          "internalType": "uint256",
          "name": "toTokenId",
          "type": "uint256"
        },
        {
          "indexed": true,
          "internalType": "address",
          "name": "from",
          "type": "address"
        },
        {
          "indexed": true,
          "internalType": "address",
          "name": "to",
          "type": "address"
        }
      ],
      "name": "ConsecutiveTransfer",
      "type": "event"
    },
    {
      "anonymous": false,
      "inputs": [
        {
          "indexed": true,
          "internalType": "address",
          "name": "previousOwner",
          "type": "address"
        },
        {
          "indexed": true,
          "internalType": "address",
          "name": "newOwner",
          "type": "address"
        }
      ],
      "name": "OwnershipTransferred",
      "type": "event"
    },
    {
      "anonymous": false,
      "inputs": [
        {
          "indexed": true,
          "internalType": "address",
          "name": "from",
          "type": "address"
        },
        {
          "indexed": true,
          "internalType": "address",
          "name": "to",
          "type": "address"
        },
        {
          "indexed": true,
          "internalType": "uint256",
          "name": "tokenId",
          "type": "uint256"
        }
      ],
      "name": "Transfer",
      "type": "event"
    },
    {
      "inputs": [
        {
          "internalType": "address",
          "name": "",
          "type": "address"
        }
      ],
      "name": "WalletMint",
      "outputs": [
        {
          "internalType": "uint256",
          "name": "",
          "type": "uint256"
        }
      ],
      "stateMutability": "view",
      "type": "function"
    },
    {
      "inputs": [
        {
          "internalType": "address",
          "name": "to",
          "type": "address"
        },
        {
          "internalType": "uint256",
          "name": "tokenId",
          "type": "uint256"
        }
      ],
      "name": "approve",
      "outputs": [],
      "stateMutability": "nonpayable",
      "type": "function"
    },
    {
      "inputs": [
        {
          "internalType": "address",
          "name": "owner",
          "type": "address"
        }
      ],
      "name": "balanceOf",
      "outputs": [
        {
          "internalType": "uint256",
          "name": "",
          "type": "uint256"
        }
      ],
      "stateMutability": "view",
      "type": "function"
    },
    {
      "inputs": [],
      "name": "cost",
      "outputs": [
        {
          "internalType": "uint256",
          "name": "",
          "type": "uint256"
        }
      ],
      "stateMutability": "view",
      "type": "function"
    },
    {
      "inputs": [],
      "name": "freeMint",
      "outputs": [
        {
          "internalType": "uint256",
          "name": "",
          "type": "uint256"
        }
      ],
      "stateMutability": "view",
      "type": "function"
    },
    {
      "inputs": [
        {
          "internalType": "uint256",
          "name": "tokenId",
          "type": "uint256"
        }
      ],
      "name": "getApproved",
      "outputs": [
        {
          "internalType": "address",
          "name": "",
          "type": "address"
        }
      ],
      "stateMutability": "view",
      "type": "function"
    },
    {
      "inputs": [],
      "name": "hiddenMetadataUri",
      "outputs": [
        {
          "internalType": "string",
          "name": "",
          "type": "string"
        }
      ],
      "stateMutability": "view",
      "type": "function"
    },
    {
      "inputs": [
        {
          "internalType": "address",
          "name": "owner",
          "type": "address"
        },
        {
          "internalType": "address",
          "name": "operator",
          "type": "address"
        }
      ],
      "name": "isApprovedForAll",
      "outputs": [
        {
          "internalType": "bool",
          "name": "",
          "type": "bool"
        }
      ],
      "stateMutability": "view",
      "type": "function"
    },
    {
      "inputs": [],
      "name": "maxMintAmountPerTx",
      "outputs": [
        {
          "internalType": "uint256",
          "name": "",
          "type": "uint256"
        }
      ],
      "stateMutability": "view",
      "type": "function"
    },
    {
      "inputs": [],
      "name": "maxMintAmountPerW",
      "outputs": [
        {
          "internalType": "uint256",
          "name": "",
          "type": "uint256"
        }
      ],
      "stateMutability": "view",
      "type": "function"
    },
    {
      "inputs": [],
      "name": "maxSupply",
      "outputs": [
        {
          "internalType": "uint256",
          "name": "",
          "type": "uint256"
        }
      ],
      "stateMutability": "view",
      "type": "function"
    },
    {
      "inputs": [
        {
          "internalType": "address",
          "name": "",
          "type": "address"
        }
      ],
      "name": "mintCounter",
      "outputs": [
        {
          "internalType": "uint256",
          "name": "",
          "type": "uint256"
        }
      ],
      "stateMutability": "view",
      "type": "function"
    },
    {
      "inputs": [],
      "name": "name",
      "outputs": [
        {
          "internalType": "string",
          "name": "",
          "type": "string"
        }
      ],
      "stateMutability": "view",
      "type": "function"
    },
    {
      "inputs": [],
      "name": "owner",
      "outputs": [
        {
          "internalType": "address",
          "name": "",
          "type": "address"
        }
      ],
      "stateMutability": "view",
      "type": "function"
    },
    {
      "inputs": [
        {
          "internalType": "uint256",
          "name": "tokenId",
          "type": "uint256"
        }
      ],
      "name": "ownerOf",
      "outputs": [
        {
          "internalType": "address",
          "name": "",
          "type": "address"
        }
      ],
      "stateMutability": "view",
      "type": "function"
    },
    {
      "inputs": [
        {
          "internalType": "uint256",
          "name": "_state",
          "type": "uint256"
        }
      ],
      "name": "pause",
      "outputs": [],
      "stateMutability": "payable",
      "type": "function"
    },
    {
      "inputs": [],
      "name": "paused",
      "outputs": [
        {
          "internalType": "uint256",
          "name": "",
          "type": "uint256"
        }
      ],
      "stateMutability": "view",
      "type": "function"
    },
    {
      "inputs": [
        {
          "internalType": "uint256",
          "name": "_mintAmount",
          "type": "uint256"
        }
      ],
      "name": "publicSaleMint",
      "outputs": [],
      "stateMutability": "payable",
      "type": "function"
    },
    {
      "inputs": [],
      "name": "renounceOwnership",
      "outputs": [],
      "stateMutability": "nonpayable",
      "type": "function"
    },
    {
      "inputs": [],
      "name": "revealed",
      "outputs": [
        {
          "internalType": "bool",
          "name": "",
          "type": "bool"
        }
      ],
      "stateMutability": "view",
      "type": "function"
    },
    {
      "inputs": [
        {
          "internalType": "address",
          "name": "from",
          "type": "address"
        },
        {
          "internalType": "address",
          "name": "to",
          "type": "address"
        },
        {
          "internalType": "uint256",
          "name": "tokenId",
          "type": "uint256"
        }
      ],
      "name": "safeTransferFrom",
      "outputs": [],
      "stateMutability": "nonpayable",
      "type": "function"
    },
    {
      "inputs": [
        {
          "internalType": "address",
          "name": "from",
          "type": "address"
        },
        {
          "internalType": "address",
          "name": "to",
          "type": "address"
        },
        {
          "internalType": "uint256",
          "name": "tokenId",
          "type": "uint256"
        },
        {
          "internalType": "bytes",
          "name": "_data",
          "type": "bytes"
        }
      ],
      "name": "safeTransferFrom",
      "outputs": [],
      "stateMutability": "nonpayable",
      "type": "function"
    },
    {
      "inputs": [
        {
          "internalType": "address",
          "name": "operator",
          "type": "address"
        },
        {
          "internalType": "bool",
          "name": "approved",
          "type": "bool"
        }
      ],
      "name": "setApprovalForAll",
      "outputs": [],
      "stateMutability": "nonpayable",
      "type": "function"
    },
    {
      "inputs": [
        {
          "internalType": "uint256",
          "name": "_cost",
          "type": "uint256"
        }
      ],
      "name": "setCost",
      "outputs": [],
      "stateMutability": "nonpayable",
      "type": "function"
    },
    {
      "inputs": [
        {
          "internalType": "string",
          "name": "_hiddenMetadataUri",
          "type": "string"
        }
      ],
      "name": "setHiddenMetadataUri",
      "outputs": [],
      "stateMutability": "nonpayable",
      "type": "function"
    },
    {
      "inputs": [
        {
          "internalType": "uint256",
          "name": "_maxMintAmountPerTx",
          "type": "uint256"
        }
      ],
      "name": "setMaxMintAmountPerTx",
      "outputs": [],
      "stateMutability": "nonpayable",
      "type": "function"
    },
    {
      "inputs": [
        {
          "internalType": "uint256",
          "name": "_maxMintAmountPerW",
          "type": "uint256"
        }
      ],
      "name": "setMaxMintAmountPerW",
      "outputs": [],
      "stateMutability": "nonpayable",
      "type": "function"
    },
    {
      "inputs": [
        {
          "internalType": "bool",
          "name": "_state",
          "type": "bool"
        }
      ],
      "name": "setRevealed",
      "outputs": [],
      "stateMutability": "nonpayable",
      "type": "function"
    },
    {
      "inputs": [
        {
          "internalType": "string",
          "name": "_uriPrefix",
          "type": "string"
        }
      ],
      "name": "setUriPrefix",
      "outputs": [],
      "stateMutability": "nonpayable",
      "type": "function"
    },
    {
      "inputs": [
        {
          "internalType": "string",
          "name": "_uriSuffix",
          "type": "string"
        }
      ],
      "name": "setUriSuffix",
      "outputs": [],
      "stateMutability": "nonpayable",
      "type": "function"
    },
    {
      "inputs": [
        {
          "internalType": "bytes4",
          "name": "interfaceId",
          "type": "bytes4"
        }
      ],
      "name": "supportsInterface",
      "outputs": [
        {
          "internalType": "bool",
          "name": "",
          "type": "bool"
        }
      ],
      "stateMutability": "view",
      "type": "function"
    },
    {
      "inputs": [],
      "name": "symbol",
      "outputs": [
        {
          "internalType": "string",
          "name": "",
          "type": "string"
        }
      ],
      "stateMutability": "view",
      "type": "function"
    },
    {
      "inputs": [
        {
          "internalType": "uint256",
          "name": "_tokenId",
          "type": "uint256"
        }
      ],
      "name": "tokenURI",
      "outputs": [
        {
          "internalType": "string",
          "name": "",
          "type": "string"
        }
      ],
      "stateMutability": "view",
      "type": "function"
    },
    {
      "inputs": [],
      "name": "totalSupply",
      "outputs": [
        {
          "internalType": "uint256",
          "name": "",
          "type": "uint256"
        }
      ],
      "stateMutability": "view",
      "type": "function"
    },
    {
      "inputs": [
        {
          "internalType": "address",
          "name": "from",
          "type": "address"
        },
        {
          "internalType": "address",
          "name": "to",
          "type": "address"
        },
        {
          "internalType": "uint256",
          "name": "tokenId",
          "type": "uint256"
        }
      ],
      "name": "transferFrom",
      "outputs": [],
      "stateMutability": "nonpayable",
      "type": "function"
    },
    {
      "inputs": [
        {
          "internalType": "address",
          "name": "newOwner",
          "type": "address"
        }
      ],
      "name": "transferOwnership",
      "outputs": [],
      "stateMutability": "nonpayable",
      "type": "function"
    },
    {
      "inputs": [],
      "name": "uriPrefix",
      "outputs": [
        {
          "internalType": "string",
          "name": "",
          "type": "string"
        }
      ],
      "stateMutability": "view",
      "type": "function"
    },
    {
      "inputs": [],
      "name": "uriSuffix",
      "outputs": [
        {
          "internalType": "string",
          "name": "",
          "type": "string"
        }
      ],
      "stateMutability": "view",
      "type": "function"
    },
    {
      "inputs": [],
      "name": "withdraw",
      "outputs": [],
      "stateMutability": "nonpayable",
      "type": "function"
    }
  ],
  "bytecode": "0x60a060405260006080908152600c906200001a908262000348565b50604080518082019091526005815264173539b7b760d91b6020820152600d9062000046908262000348565b50600260105560016014556015805460ff191690553480156200006857600080fd5b5060405162002497380380620024978339810160408190526200008b91620004c3565b868660026200009b838262000348565b506003620000aa828262000348565b5050600160005550620000bd3362000100565b6001600955620000cd8562000152565b6011849055620000dd83620001a6565b620000e882620001f6565b620000f38162000246565b505050505050506200057b565b600880546001600160a01b038381166001600160a01b0319831681179093556040519116919082907f8be0079c531659141344cd1fd0a4f28419497f9722a3daafe3b4186f6b6457e090600090a35050565b6008546001600160a01b03163314620001a15760405162461bcd60e51b815260206004820181905260248201526000805160206200247783398151915260448201526064015b60405180910390fd5b600f55565b6008546001600160a01b03163314620001f15760405162461bcd60e51b8152602060048201819052602482015260008051602062002477833981519152604482015260640162000198565b601255565b6008546001600160a01b03163314620002415760405162461bcd60e51b8152602060048201819052602482015260008051602062002477833981519152604482015260640162000198565b601355565b6008546001600160a01b03163314620002915760405162461bcd60e51b8152602060048201819052602482015260008051602062002477833981519152604482015260640162000198565b600e6200029f828262000348565b5050565b634e487b7160e01b600052604160045260246000fd5b600181811c90821680620002ce57607f821691505b602082108103620002ef57634e487b7160e01b600052602260045260246000fd5b50919050565b601f8211156200034357600081815260208120601f850160051c810160208610156200031e5750805b601f850160051c820191505b818110156200033f578281556001016200032a565b5050505b505050565b81516001600160401b03811115620003645762000364620002a3565b6200037c81620003758454620002b9565b84620002f5565b602080601f831160018114620003b457600084156200039b5750858301515b600019600386901b1c1916600185901b1785556200033f565b600085815260208120601f198616915b82811015620003e557888601518255948401946001909101908401620003c4565b5085821015620004045787850151600019600388901b60f8161c191681555b5050505050600190811b01905550565b600082601f8301126200042657600080fd5b81516001600160401b0380821115620004435762000443620002a3565b604051601f8301601f19908116603f011681019082821181831017156200046e576200046e620002a3565b816040528381526020925086838588010111156200048b57600080fd5b600091505b83821015620004af578582018301518183018401529082019062000490565b600093810190920192909252949350505050565b600080600080600080600060e0888a031215620004df57600080fd5b87516001600160401b0380821115620004f757600080fd5b620005058b838c0162000414565b985060208a01519150808211156200051c57600080fd5b6200052a8b838c0162000414565b975060408a0151965060608a0151955060808a0151945060a08a0151935060c08a01519150808211156200055d57600080fd5b506200056c8a828b0162000414565b91505092959891949750929550565b611eec806200058b6000396000f3fe6080604052600436106102305760003560e01c806362b99ad41161012e578063a45ba8e7116100ab578063d5abeb011161006f578063d5abeb0114610628578063e0a808531461063e578063e645f7081461065e578063e985e9c51461068b578063f2fde38b146106ab57600080fd5b8063a45ba8e7146105a0578063b071401b146105b5578063b3ab66b0146105d5578063b88d4fde146105e8578063c87b56dd1461060857600080fd5b8063867cb30e116100f2578063867cb30e146105215780638da5cb5b1461053757806394354fd01461055557806395d89b411461056b578063a22cb4651461058057600080fd5b806362b99ad4146104975780636352211e146104ac57806370a08231146104cc578063715018a6146104ec5780637ec4a6591461050157600080fd5b806323b872dd116101bc5780634fdd43cb116101805780634fdd43cb1461041c578063518302271461043c5780635503a0e8146104565780635b70ea9f1461046b5780635c975abb1461048157600080fd5b806323b872dd1461038757806326b092df146103a75780633ccfd60b146103c757806342842e0e146103dc57806344a0d68a146103fc57600080fd5b8063136439dd11610203578063136439dd146102e657806313faede6146102f957806316ba10e01461031d57806318160ddd1461033d5780631cdce9fe1461035a57600080fd5b806301ffc9a71461023557806306fdde031461026a578063081812fc1461028c578063095ea7b3146102c4575b600080fd5b34801561024157600080fd5b50610255610250366004611870565b6106cb565b60405190151581526020015b60405180910390f35b34801561027657600080fd5b5061027f61071d565b60405161026191906118dd565b34801561029857600080fd5b506102ac6102a73660046118f0565b6107af565b6040516001600160a01b039091168152602001610261565b3480156102d057600080fd5b506102e46102df366004611925565b6107f3565b005b6102e46102f43660046118f0565b610893565b34801561030557600080fd5b5061030f600f5481565b604051908152602001610261565b34801561032957600080fd5b506102e46103383660046119db565b6108cb565b34801561034957600080fd5b50600154600054036000190161030f565b34801561036657600080fd5b5061030f610375366004611a24565b600a6020526000908152604090205481565b34801561039357600080fd5b506102e46103a2366004611a3f565b610905565b3480156103b357600080fd5b506102e46103c23660046118f0565b610a9e565b3480156103d357600080fd5b506102e4610acd565b3480156103e857600080fd5b506102e46103f7366004611a3f565b610bc7565b34801561040857600080fd5b506102e46104173660046118f0565b610be7565b34801561042857600080fd5b506102e46104373660046119db565b610c16565b34801561044857600080fd5b506015546102559060ff1681565b34801561046257600080fd5b5061027f610c4c565b34801561047757600080fd5b5061030f60105481565b34801561048d57600080fd5b5061030f60145481565b3480156104a357600080fd5b5061027f610cda565b3480156104b857600080fd5b506102ac6104c73660046118f0565b610ce7565b3480156104d857600080fd5b5061030f6104e7366004611a24565b610cf2565b3480156104f857600080fd5b506102e4610d41565b34801561050d57600080fd5b506102e461051c3660046119db565b610d77565b34801561052d57600080fd5b5061030f60135481565b34801561054357600080fd5b506008546001600160a01b03166102ac565b34801561056157600080fd5b5061030f60125481565b34801561057757600080fd5b5061027f610dad565b34801561058c57600080fd5b506102e461059b366004611a8b565b610dbc565b3480156105ac57600080fd5b5061027f610e51565b3480156105c157600080fd5b506102e46105d03660046118f0565b610e5e565b6102e46105e33660046118f0565b610e8d565b3480156105f457600080fd5b506102e4610603366004611abe565b61102a565b34801561061457600080fd5b5061027f6106233660046118f0565b611074565b34801561063457600080fd5b5061030f60115481565b34801561064a57600080fd5b506102e4610659366004611b3a565b6111e3565b34801561066a57600080fd5b5061030f610679366004611a24565b600b6020526000908152604090205481565b34801561069757600080fd5b506102556106a6366004611b55565b611220565b3480156106b757600080fd5b506102e46106c6366004611a24565b61124e565b60006301ffc9a760e01b6001600160e01b0319831614806106fc57506380ac58cd60e01b6001600160e01b03198316145b806107175750635b5e139f60e01b6001600160e01b03198316145b92915050565b60606002805461072c90611b7f565b80601f016020809104026020016040519081016040528092919081815260200182805461075890611b7f565b80156107a55780601f1061077a576101008083540402835291602001916107a5565b820191906000526020600020905b81548152906001019060200180831161078857829003601f168201915b5050505050905090565b60006107ba826112e9565b6107d7576040516333d1c03960e21b815260040160405180910390fd5b506000908152600660205260409020546001600160a01b031690565b60006107fe82610ce7565b9050336001600160a01b038216146108375761081a8133611220565b610837576040516367d9dca160e11b815260040160405180910390fd5b60008281526006602052604080822080546001600160a01b0319166001600160a01b0387811691821790925591518593918516917f8c5be1e5ebec7d5bd14f71427d1e84f3dd0314c0f7b2291e5b200ac8c7c3b92591a4505050565b6008546001600160a01b031633146108c65760405162461bcd60e51b81526004016108bd90611bb9565b60405180910390fd5b601455565b6008546001600160a01b031633146108f55760405162461bcd60e51b81526004016108bd90611bb9565b600d6109018282611c34565b5050565b60006109108261131e565b9050836001600160a01b0316816001600160a01b0316146109435760405162a1148160e81b815260040160405180910390fd5b60008281526006602052604090208054338082146001600160a01b03881690911417610990576109738633611220565b61099057604051632ce44b5f60e11b815260040160405180910390fd5b6001600160a01b0385166109b757604051633a954ecd60e21b815260040160405180910390fd5b80156109c257600082555b6001600160a01b038681166000908152600560205260408082208054600019019055918716808252919020805460010190554260a01b17600160e11b17600085815260046020526040812091909155600160e11b84169003610a5457600184016000818152600460205260408120549003610a52576000548114610a525760008181526004602052604090208490555b505b83856001600160a01b0316876001600160a01b03167fddf252ad1be2c89b69c2b068fc378daa952ba7f163c4a11628f55a4df523b3ef60405160405180910390a45b505050505050565b6008546001600160a01b03163314610ac85760405162461bcd60e51b81526004016108bd90611bb9565b601355565b6008546001600160a01b03163314610af75760405162461bcd60e51b81526004016108bd90611bb9565b600260095403610b495760405162461bcd60e51b815260206004820152601f60248201527f5265656e7472616e637947756172643a207265656e7472616e742063616c6c0060448201526064016108bd565b60026009556000610b626008546001600160a01b031690565b6001600160a01b03164760405160006040518083038185875af1925050503d8060008114610bac576040519150601f19603f3d011682016040523d82523d6000602084013e610bb1565b606091505b5050905080610bbf57600080fd5b506001600955565b610be28383836040518060200160405280600081525061102a565b505050565b6008546001600160a01b03163314610c115760405162461bcd60e51b81526004016108bd90611bb9565b600f55565b6008546001600160a01b03163314610c405760405162461bcd60e51b81526004016108bd90611bb9565b600e6109018282611c34565b600d8054610c5990611b7f565b80601f0160208091040260200160405190810160405280929190818152602001828054610c8590611b7f565b8015610cd25780601f10610ca757610100808354040283529160200191610cd2565b820191906000526020600020905b815481529060010190602001808311610cb557829003601f168201915b505050505081565b600c8054610c5990611b7f565b60006107178261131e565b60006001600160a01b038216610d1b576040516323d3ad8160e21b815260040160405180910390fd5b506001600160a01b031660009081526005602052604090205467ffffffffffffffff1690565b6008546001600160a01b03163314610d6b5760405162461bcd60e51b81526004016108bd90611bb9565b610d75600061138d565b565b6008546001600160a01b03163314610da15760405162461bcd60e51b81526004016108bd90611bb9565b600c6109018282611c34565b60606003805461072c90611b7f565b336001600160a01b03831603610de55760405163b06307db60e01b815260040160405180910390fd5b3360008181526007602090815260408083206001600160a01b03871680855290835292819020805460ff191686151590811790915590519081529192917f17307eab39ab6107e8899845ad3d59bd9653f200f220920489ca2b5937696c31910160405180910390a35050565b600e8054610c5990611b7f565b6008546001600160a01b03163314610e885760405162461bcd60e51b81526004016108bd90611bb9565b601255565b80600081118015610ea057506012548111155b610ee35760405162461bcd60e51b8152602060048201526014602482015273496e76616c6964206d696e7420616d6f756e742160601b60448201526064016108bd565b601354336000908152600a6020526040902054610f01908390611d0a565b1115610f4f5760405162461bcd60e51b815260206004820152601760248201527f65786365656473206d617820706572206164647265737300000000000000000060448201526064016108bd565b6011546001546000548391900360001901610f6a9190611d0a565b1115610faf5760405162461bcd60e51b81526020600482015260146024820152734d617820737570706c792065786365656465642160601b60448201526064016108bd565b336000908152600a6020526040902054610fca908290611d0a565b336000908152600a60205260409020556014546001146110215760405162461bcd60e51b815260206004820152601260248201527110dbdb9d1c9858dd081a5cc81c185d5cd95960721b60448201526064016108bd565b610901826113df565b611035848484610905565b6001600160a01b0383163b1561106e57611051848484846114de565b61106e576040516368d2bf6b60e11b815260040160405180910390fd5b50505050565b606061107f826112e9565b6110e35760405162461bcd60e51b815260206004820152602f60248201527f4552433732314d657461646174613a2055524920717565727920666f72206e6f60448201526e3732bc34b9ba32b73a103a37b5b2b760891b60648201526084016108bd565b60155460ff16151560000361118457600e80546110ff90611b7f565b80601f016020809104026020016040519081016040528092919081815260200182805461112b90611b7f565b80156111785780601f1061114d57610100808354040283529160200191611178565b820191906000526020600020905b81548152906001019060200180831161115b57829003601f168201915b50505050509050919050565b600061118e6115ca565b905060008151116111ae57604051806020016040528060008152506111dc565b806111b8846115d9565b600d6040516020016111cc93929190611d1d565b6040516020818303038152906040525b9392505050565b6008546001600160a01b0316331461120d5760405162461bcd60e51b81526004016108bd90611bb9565b6015805460ff1916911515919091179055565b6001600160a01b03918216600090815260076020908152604080832093909416825291909152205460ff1690565b6008546001600160a01b031633146112785760405162461bcd60e51b81526004016108bd90611bb9565b6001600160a01b0381166112dd5760405162461bcd60e51b815260206004820152602660248201527f4f776e61626c653a206e6577206f776e657220697320746865207a65726f206160448201526564647265737360d01b60648201526084016108bd565b6112e68161138d565b50565b6000816001111580156112fd575060005482105b8015610717575050600090815260046020526040902054600160e01b161590565b60008180600111611374576000548110156113745760008181526004602052604081205490600160e01b82169003611372575b806000036111dc575060001901600081815260046020526040902054611351565b505b604051636f96cda160e11b815260040160405180910390fd5b600880546001600160a01b038381166001600160a01b0319831681179093556040519116919082907f8be0079c531659141344cd1fd0a4f28419497f9722a3daafe3b4186f6b6457e090600090a35050565b601054336000908152600b602052604090205410156114905760105481101561140757506010545b600f546010546114179083611dbd565b6114219190611dd0565b3410156114615760405162461bcd60e51b815260206004820152600e60248201526d10db185a5b48119c99594813919560921b60448201526064016108bd565b336000908152600b602052604081208054839290611480908490611d0a565b909155506112e6905033826116da565b600f5461149d9082611dd0565b3410156114615760405162461bcd60e51b815260206004820152600f60248201526e08ceadcc840dcdee840cadcdeeaced608b1b60448201526064016108bd565b604051630a85bd0160e11b81526000906001600160a01b0385169063150b7a0290611513903390899088908890600401611def565b6020604051808303816000875af192505050801561154e575060408051601f3d908101601f1916820190925261154b91810190611e2c565b60015b6115ac573d80801561157c576040519150601f19603f3d011682016040523d82523d6000602084013e611581565b606091505b5080516000036115a4576040516368d2bf6b60e11b815260040160405180910390fd5b805181602001fd5b6001600160e01b031916630a85bd0160e11b1490505b949350505050565b6060600c805461072c90611b7f565b6060816000036116005750506040805180820190915260018152600360fc1b602082015290565b8160005b811561162a578061161481611e49565b91506116239050600a83611e78565b9150611604565b60008167ffffffffffffffff8111156116455761164561194f565b6040519080825280601f01601f19166020018201604052801561166f576020820181803683370190505b5090505b84156115c257611684600183611dbd565b9150611691600a86611e8c565b61169c906030611d0a565b60f81b8183815181106116b1576116b1611ea0565b60200101906001600160f81b031916908160001a9053506116d3600a86611e78565b9450611673565b6109018282604051806020016040528060008152506116f9838361175c565b6001600160a01b0383163b15610be2576000548281035b61172360008683806001019450866114de565b611740576040516368d2bf6b60e11b815260040160405180910390fd5b81811061171057816000541461175557600080fd5b5050505050565b60008054908290036117815760405163b562e8dd60e01b815260040160405180910390fd5b6001600160a01b03831660008181526005602090815260408083208054680100000000000000018802019055848352600490915281206001851460e11b4260a01b178317905582840190839083907fddf252ad1be2c89b69c2b068fc378daa952ba7f163c4a11628f55a4df523b3ef8180a4600183015b81811461183057808360007fddf252ad1be2c89b69c2b068fc378daa952ba7f163c4a11628f55a4df523b3ef600080a46001016117f8565b508160000361185157604051622e076360e81b815260040160405180910390fd5b60005550505050565b6001600160e01b0319811681146112e657600080fd5b60006020828403121561188257600080fd5b81356111dc8161185a565b60005b838110156118a8578181015183820152602001611890565b50506000910152565b600081518084526118c981602086016020860161188d565b601f01601f19169290920160200192915050565b6020815260006111dc60208301846118b1565b60006020828403121561190257600080fd5b5035919050565b80356001600160a01b038116811461192057600080fd5b919050565b6000806040838503121561193857600080fd5b61194183611909565b946020939093013593505050565b634e487b7160e01b600052604160045260246000fd5b600067ffffffffffffffff808411156119805761198061194f565b604051601f8501601f19908116603f011681019082821181831017156119a8576119a861194f565b816040528093508581528686860111156119c157600080fd5b858560208301376000602087830101525050509392505050565b6000602082840312156119ed57600080fd5b813567ffffffffffffffff811115611a0457600080fd5b8201601f81018413611a1557600080fd5b6115c284823560208401611965565b600060208284031215611a3657600080fd5b6111dc82611909565b600080600060608486031215611a5457600080fd5b611a5d84611909565b9250611a6b60208501611909565b9150604084013590509250925092565b8035801515811461192057600080fd5b60008060408385031215611a9e57600080fd5b611aa783611909565b9150611ab560208401611a7b565b90509250929050565b60008060008060808587031215611ad457600080fd5b611add85611909565b9350611aeb60208601611909565b925060408501359150606085013567ffffffffffffffff811115611b0e57600080fd5b8501601f81018713611b1f57600080fd5b611b2e87823560208401611965565b91505092959194509250565b600060208284031215611b4c57600080fd5b6111dc82611a7b565b60008060408385031215611b6857600080fd5b611b7183611909565b9150611ab560208401611909565b600181811c90821680611b9357607f821691505b602082108103611bb357634e487b7160e01b600052602260045260246000fd5b50919050565b6020808252818101527f4f776e61626c653a2063616c6c6572206973206e6f7420746865206f776e6572604082015260600190565b601f821115610be257600081815260208120601f850160051c81016020861015611c155750805b601f850160051c820191505b81811015610a9657828155600101611c21565b815167ffffffffffffffff811115611c4e57611c4e61194f565b611c6281611c5c8454611b7f565b84611bee565b602080601f831160018114611c975760008415611c7f5750858301515b600019600386901b1c1916600185901b178555610a96565b600085815260208120601f198616915b82811015611cc657888601518255948401946001909101908401611ca7565b5085821015611ce45787850151600019600388901b60f8161c191681555b5050505050600190811b01905550565b634e487b7160e01b600052601160045260246000fd5b8082018082111561071757610717611cf4565b600084516020611d308285838a0161188d565b855191840191611d438184848a0161188d565b8554920191600090611d5481611b7f565b60018281168015611d6c5760018114611d8157611dad565b60ff1984168752821515830287019450611dad565b896000528560002060005b84811015611da557815489820152908301908701611d8c565b505082870194505b50929a9950505050505050505050565b8181038181111561071757610717611cf4565b6000816000190483118215151615611dea57611dea611cf4565b500290565b6001600160a01b0385811682528416602082015260408101839052608060608201819052600090611e22908301846118b1565b9695505050505050565b600060208284031215611e3e57600080fd5b81516111dc8161185a565b600060018201611e5b57611e5b611cf4565b5060010190565b634e487b7160e01b600052601260045260246000fd5b600082611e8757611e87611e62565b500490565b600082611e9b57611e9b611e62565b500690565b634e487b7160e01b600052603260045260246000fdfea264697066735822122001b8ffa74aa26539fff96ce55a3a487ff9b3e74c19441a1dca85db1b1f4f664f64736f6c634300081000334f776e61626c653a2063616c6c6572206973206e6f7420746865206f776e6572",
  "linkReferences": {},
  "deployedLinkReferences": {}
}